{"contracts/FundMe.sol":{"FundMe":{"abi":[{"inputs":[{"internalType":"address","name":"priceFeed","type":"address"}],"stateMutability":"nonpayable","type":"constructor"},{"inputs":[],"name":"FundMe__NotOwner","type":"error"},{"inputs":[],"name":"MINIMUM_USD","outputs":[{"internalType":"uint256","name":"","type":"uint256"}],"stateMutability":"view","type":"function"},{"inputs":[],"name":"cheaperWithdraw","outputs":[],"stateMutability":"nonpayable","type":"function"},{"inputs":[],"name":"fund","outputs":[],"stateMutability":"payable","type":"function"},{"inputs":[{"internalType":"address","name":"fundingAddress","type":"address"}],"name":"getAddressToAmountFunded","outputs":[{"internalType":"uint256","name":"","type":"uint256"}],"stateMutability":"view","type":"function"},{"inputs":[{"internalType":"uint256","name":"index","type":"uint256"}],"name":"getFunder","outputs":[{"internalType":"address","name":"","type":"address"}],"stateMutability":"view","type":"function"},{"inputs":[],"name":"getOwner","outputs":[{"internalType":"address","name":"","type":"address"}],"stateMutability":"view","type":"function"},{"inputs":[],"name":"getPriceFeed","outputs":[{"internalType":"contract AggregatorV3Interface","name":"","type":"address"}],"stateMutability":"view","type":"function"},{"inputs":[],"name":"maximumFund","outputs":[{"internalType":"uint256","name":"","type":"uint256"}],"stateMutability":"view","type":"function"},{"inputs":[],"name":"maximumFunder","outputs":[{"internalType":"address","name":"","type":"address"}],"stateMutability":"view","type":"function"},{"inputs":[],"name":"withdraw","outputs":[],"stateMutability":"nonpayable","type":"function"}],"devdoc":{"author":"Patrick Collins","details":"This implements price feeds as our library","kind":"dev","methods":{"getAddressToAmountFunded(address)":{"params":{"fundingAddress":"the address of the funder"},"returns":{"_0":"the amount funded"}}},"title":"A sample Funding Contract","version":1},"evm":{"bytecode":{"linkReferences":{},"object":"60a06040523480156200001157600080fd5b5060405162001b1638038062001b16833981810160405281019062000037919062000124565b6200005367eba6f9442e067f8460c01b6200010a60201b60201c565b6200006f67c9c57152c98b314260c01b6200010a60201b60201c565b80600260006101000a81548173ffffffffffffffffffffffffffffffffffffffff021916908373ffffffffffffffffffffffffffffffffffffffff160217905550620000cc67d5c0a1f176da864a60c01b6200010a60201b60201c565b3373ffffffffffffffffffffffffffffffffffffffff1660808173ffffffffffffffffffffffffffffffffffffffff1660601b8152505050620001a9565b50565b6000815190506200011e816200018f565b92915050565b6000602082840312156200013d576200013c6200018a565b5b60006200014d848285016200010d565b91505092915050565b600062000163826200016a565b9050919050565b600073ffffffffffffffffffffffffffffffffffffffff82169050919050565b600080fd5b6200019a8162000156565b8114620001a657600080fd5b50565b60805160601c611932620001e4600039600081816102f60152818161058d015281816107ff01528181610b860152610ea801526119326000f3fe6080604052600436106100915760003560e01c8063893d20e811610059578063893d20e81461016b5780639e87a5cd14610196578063b60d4288146101c1578063be2693f0146101cb578063d7b4750c146101e257610091565b80630343fb25146100965780633ccfd60b146100d35780634dd7f383146100ea5780635dc65880146101155780636b69a59214610140575b600080fd5b3480156100a257600080fd5b506100bd60048036038101906100b891906112f6565b61021f565b6040516100ca91906114a9565b60405180910390f35b3480156100df57600080fd5b506100e86102a4565b005b3480156100f657600080fd5b506100ff610786565b60405161010c9190611453565b60405180910390f35b34801561012157600080fd5b5061012a6107ac565b60405161013791906114a9565b60405180910390f35b34801561014c57600080fd5b506101556107b2565b60405161016291906114a9565b60405180910390f35b34801561017757600080fd5b506101806107bf565b60405161018d9190611453565b60405180910390f35b3480156101a257600080fd5b506101ab610823565b6040516101b8919061146e565b60405180910390f35b6101c9610889565b005b3480156101d757600080fd5b506101e0610b34565b005b3480156101ee57600080fd5b5061020960048036038101906102049190611323565b610f8e565b6040516102169190611453565b60405180910390f35b600061023567131a11dfda29a88360c01b611012565b610249679c3652fea882637e60c01b611012565b61025d672b478576f6e099a260c01b611012565b600160008373ffffffffffffffffffffffffffffffffffffffff1673ffffffffffffffffffffffffffffffffffffffff168152602001908152602001600020549050919050565b6102b86706b2ca27ba731fd060c01b611012565b6102cc67e6f461cdce85a4ef60c01b611012565b6102e06794fca8fa82cedad460c01b611012565b6102f467c3d39265c000fcb660c01b611012565b7f000000000000000000000000000000000000000000000000000000000000000073ffffffffffffffffffffffffffffffffffffffff163373ffffffffffffffffffffffffffffffffffffffff161461038d5761035b67d2ffdb77d736010a60c01b611012565b6040517f579610db00000000000000000000000000000000000000000000000000000000815260040160405180910390fd5b6103a1675aa431f41b99098960c01b611012565b6103b567a4df6b02b09d91a960c01b611012565b6103c9675f4f6038cb3f198e60c01b611012565b6103dd671262d1c21a2d140b60c01b611012565b6103f167d85722ea430ca8ca60c01b611012565b61040567861b3650496d1f1f60c01b611012565b60005b6000805490508110156104ec576104296731645dcb79b6e01660c01b611012565b61043d67240d6f1772023f1b60c01b611012565b600080828154811061045257610451611811565b5b9060005260206000200160009054906101000a900473ffffffffffffffffffffffffffffffffffffffff16905061049367ca38d58be45f5e0560c01b611012565b6000600160008373ffffffffffffffffffffffffffffffffffffffff1673ffffffffffffffffffffffffffffffffffffffff168152602001908152602001600020819055505080806104e49061176a565b915050610408565b50610501674c46be553d02225260c01b611012565b600067ffffffffffffffff81111561051c5761051b611840565b5b60405190808252806020026020018201604052801561054a5781602001602082028036833780820191505090505b50600090805190602001906105609291906111e6565b50610575670c0088cea228bf9960c01b611012565b61058967acddaf89cfb7114360c01b611012565b60007f000000000000000000000000000000000000000000000000000000000000000073ffffffffffffffffffffffffffffffffffffffff1660646061476105d1919061167e565b6105db9190611536565b6040516105e79061143e565b60006040518083038185875af1925050503d8060008114610624576040519150601f19603f3d011682016040523d82523d6000602084013e610629565b606091505b50509050610641671db7c21a2360787060c01b611012565b61065567b42ad5c5e2b1359d60c01b611012565b610669670c75bdd568c4b9c960c01b611012565b8061067357600080fd5b6106876720caeee97f90e5d060c01b611012565b61069b67098c2da0284582d660c01b611012565b600460009054906101000a900473ffffffffffffffffffffffffffffffffffffffff1673ffffffffffffffffffffffffffffffffffffffff16476040516106e19061143e565b60006040518083038185875af1925050503d806000811461071e576040519150601f19603f3d011682016040523d82523d6000602084013e610723565b606091505b50508091505061073d67bbd43e611aa10a8360c01b611012565b61075167e9111a23161673ab60c01b611012565b610765677600a62dab25aa4060c01b611012565b8061076f57600080fd5b61078367c84e5c40477f4b6060c01b611012565b50565b600460009054906101000a900473ffffffffffffffffffffffffffffffffffffffff1681565b60035481565b6802b5e3af16b188000081565b60006107d567504a911992f6c0ee60c01b611012565b6107e967dee361c7528c74c660c01b611012565b6107fd677dbd63e61b0b473f60c01b611012565b7f0000000000000000000000000000000000000000000000000000000000000000905090565b6000610839670e9c40094653d00e60c01b611012565b61084d67f07fe750180ba50360c01b611012565b61086167bb04e98a24d8a44b60c01b611012565b600260009054906101000a900473ffffffffffffffffffffffffffffffffffffffff16905090565b61089d67c1944d2f459697c860c01b611012565b6108b16785cadaa85ba30eb860c01b611012565b6108c56739e2527e43565a9060c01b611012565b6108d9673c4d9a5a6083361d60c01b611012565b6802b5e3af16b1880000610918600260009054906101000a900473ffffffffffffffffffffffffffffffffffffffff163461101590919063ffffffff16565b1015610959576040517f08c379a000000000000000000000000000000000000000000000000000000000815260040161095090611489565b60405180910390fd5b61096d679190b219647e698b60c01b611012565b61098167926b1584dfb23af560c01b611012565b34600160003373ffffffffffffffffffffffffffffffffffffffff1673ffffffffffffffffffffffffffffffffffffffff16815260200190815260200160002060008282546109d091906114e0565b925050819055506109eb67b3e8ebcba8a0bbe860c01b611012565b6109ff67897fe3088ac4ca8f60c01b611012565b6000339080600181540180825580915050600190039060005260206000200160009091909190916101000a81548173ffffffffffffffffffffffffffffffffffffffff021916908373ffffffffffffffffffffffffffffffffffffffff160217905550610a76670956188cc5f8a8c160c01b611012565b610a8a67e0581f30b721e84660c01b611012565b600354341115610b1d57610aa867b95dc4860a1fc78260c01b611012565b610abc67ec08a3ae6ef7671e60c01b611012565b34600381905550610ad76729486e6f4d93286660c01b611012565b33600460006101000a81548173ffffffffffffffffffffffffffffffffffffffff021916908373ffffffffffffffffffffffffffffffffffffffff160217905550610b32565b610b316736cc736eb411ec5060c01b611012565b5b565b610b486780dc456a6eaf9f8f60c01b611012565b610b5c67e6f461cdce85a4ef60c01b611012565b610b706794fca8fa82cedad460c01b611012565b610b8467c3d39265c000fcb660c01b611012565b7f000000000000000000000000000000000000000000000000000000000000000073ffffffffffffffffffffffffffffffffffffffff163373ffffffffffffffffffffffffffffffffffffffff1614610c1d57610beb67d2ffdb77d736010a60c01b611012565b6040517f579610db00000000000000000000000000000000000000000000000000000000815260040160405180910390fd5b610c31675aa431f41b99098960c01b611012565b610c4567a4df6b02b09d91a960c01b611012565b610c5967735417df9ea0d25360c01b611012565b610c6d67adfda7ed19b159e860c01b611012565b610c8167e6ee917a2e7b176560c01b611012565b610c95672e0b6836a66eedbc60c01b611012565b600080805480602002602001604051908101604052809291908181526020018280548015610d1857602002820191906000526020600020905b8160009054906101000a900473ffffffffffffffffffffffffffffffffffffffff1673ffffffffffffffffffffffffffffffffffffffff1681526020019060010190808311610cce575b50505050509050610d33674a9604527e5836a760c01b611012565b610d4767be648591e59c89c160c01b611012565b60005b8151811015610e0757610d67674440b3cbd80a2d3860c01b611012565b610d7b6765b2800d3de7a5a360c01b611012565b6000828281518110610d9057610d8f611811565b5b60200260200101519050610dae670978b1c185294bb260c01b611012565b6000600160008373ffffffffffffffffffffffffffffffffffffffff1673ffffffffffffffffffffffffffffffffffffffff16815260200190815260200160002081905550508080610dff9061176a565b915050610d4a565b50610e1c6726616e36bed42f3c60c01b611012565b600067ffffffffffffffff811115610e3757610e36611840565b5b604051908082528060200260200182016040528015610e655781602001602082028036833780820191505090505b5060009080519060200190610e7b9291906111e6565b50610e9067e44e370e2115ed5260c01b611012565b610ea46752832c778e89ddbf60c01b611012565b60007f000000000000000000000000000000000000000000000000000000000000000073ffffffffffffffffffffffffffffffffffffffff1647604051610eea9061143e565b60006040518083038185875af1925050503d8060008114610f27576040519150601f19603f3d011682016040523d82523d6000602084013e610f2c565b606091505b50509050610f4467e1d0a45a0891cbbf60c01b611012565b610f5867a527c55506534b3260c01b611012565b610f6c6712a7862dcb9e927c60c01b611012565b80610f7657600080fd5b610f8a675f7681ec22f57a0560c01b611012565b5050565b6000610fa467d6581c5543738f8560c01b611012565b610fb867792c57807593005a60c01b611012565b610fcc677f9634b3a9f8ab4c60c01b611012565b60008281548110610fe057610fdf611811565b5b9060005260206000200160009054906101000a900473ffffffffffffffffffffffffffffffffffffffff169050919050565b50565b600061102b67dfe75ea47962ef0960c01b6110de565b61103f67f576a010077517c960c01b6110de565b611053676dee5f1035f94a7760c01b6110de565b600061105e836110e1565b905061107467c5727a2c85365b9760c01b6110de565b61108867272a1a94643f2a6660c01b6110de565b6000670de0b6b3a7640000858361109f919061167e565b6110a99190611536565b90506110bf6768ef49b35af088a960c01b6110de565b6110d3676aaf556751fb5a3b60c01b6110de565b809250505092915050565b50565b60006110f76799fbd4d13ae76e3a60c01b6110de565b61110b6713a770f355a3de5a60c01b6110de565b61111f676a1dbd5b6db8c7fb60c01b6110de565b60008273ffffffffffffffffffffffffffffffffffffffff1663feaf968c6040518163ffffffff1660e01b815260040160a06040518083038186803b15801561116757600080fd5b505afa15801561117b573d6000803e3d6000fd5b505050506040513d601f19601f8201168201806040525081019061119f9190611350565b5050509150506111b9679c79cf51f2681a6060c01b6110de565b6111cd671efba5608991115d60c01b6110de565b6402540be400816111de9190611567565b915050919050565b82805482825590600052602060002090810192821561125f579160200282015b8281111561125e5782518260006101000a81548173ffffffffffffffffffffffffffffffffffffffff021916908373ffffffffffffffffffffffffffffffffffffffff16021790555091602001919060010190611206565b5b50905061126c9190611270565b5090565b5b80821115611289576000816000905550600101611271565b5090565b60008135905061129c816118a0565b92915050565b6000815190506112b1816118b7565b92915050565b6000813590506112c6816118ce565b92915050565b6000815190506112db816118ce565b92915050565b6000815190506112f0816118e5565b92915050565b60006020828403121561130c5761130b61186f565b5b600061131a8482850161128d565b91505092915050565b6000602082840312156113395761133861186f565b5b6000611347848285016112b7565b91505092915050565b600080600080600060a0868803121561136c5761136b61186f565b5b600061137a888289016112e1565b955050602061138b888289016112a2565b945050604061139c888289016112cc565b93505060606113ad888289016112cc565b92505060806113be888289016112e1565b9150509295509295909350565b6113d4816116d8565b82525050565b6113e381611734565b82525050565b60006113f6601b836114cf565b915061140182611874565b602082019050919050565b60006114196000836114c4565b91506114248261189d565b600082019050919050565b61143881611714565b82525050565b60006114498261140c565b9150819050919050565b600060208201905061146860008301846113cb565b92915050565b600060208201905061148360008301846113da565b92915050565b600060208201905081810360008301526114a2816113e9565b9050919050565b60006020820190506114be600083018461142f565b92915050565b600081905092915050565b600082825260208201905092915050565b60006114eb82611714565b91506114f683611714565b9250827fffffffffffffffffffffffffffffffffffffffffffffffffffffffffffffffff0382111561152b5761152a6117b3565b5b828201905092915050565b600061154182611714565b915061154c83611714565b92508261155c5761155b6117e2565b5b828204905092915050565b6000611572826116ea565b915061157d836116ea565b9250827f7fffffffffffffffffffffffffffffffffffffffffffffffffffffffffffffff04821160008413600084131616156115bc576115bb6117b3565b5b817f800000000000000000000000000000000000000000000000000000000000000005831260008412600084131616156115f9576115f86117b3565b5b827f80000000000000000000000000000000000000000000000000000000000000000582126000841360008412161615611636576116356117b3565b5b827f7fffffffffffffffffffffffffffffffffffffffffffffffffffffffffffffff0582126000841260008412161615611673576116726117b3565b5b828202905092915050565b600061168982611714565b915061169483611714565b9250817fffffffffffffffffffffffffffffffffffffffffffffffffffffffffffffffff04831182151516156116cd576116cc6117b3565b5b828202905092915050565b60006116e3826116f4565b9050919050565b6000819050919050565b600073ffffffffffffffffffffffffffffffffffffffff82169050919050565b6000819050919050565b600069ffffffffffffffffffff82169050919050565b600061173f82611746565b9050919050565b600061175182611758565b9050919050565b6000611763826116f4565b9050919050565b600061177582611714565b91507fffffffffffffffffffffffffffffffffffffffffffffffffffffffffffffffff8214156117a8576117a76117b3565b5b600182019050919050565b7f4e487b7100000000000000000000000000000000000000000000000000000000600052601160045260246000fd5b7f4e487b7100000000000000000000000000000000000000000000000000000000600052601260045260246000fd5b7f4e487b7100000000000000000000000000000000000000000000000000000000600052603260045260246000fd5b7f4e487b7100000000000000000000000000000000000000000000000000000000600052604160045260246000fd5b600080fd5b7f596f75206e65656420746f207370656e64206d6f726520455448210000000000600082015250565b50565b6118a9816116d8565b81146118b457600080fd5b50565b6118c0816116ea565b81146118cb57600080fd5b50565b6118d781611714565b81146118e257600080fd5b50565b6118ee8161171e565b81146118f957600080fd5b5056fea264697066735822122056a38b4cade842f4370b1743ad526c1f96cd36dd63c20c2593a94547df37ac5764736f6c63430008070033","opcodes":"PUSH1 0xA0 PUSH1 0x40 MSTORE CALLVALUE DUP1 ISZERO PUSH3 0x11 JUMPI PUSH1 0x0 DUP1 REVERT JUMPDEST POP PUSH1 0x40 MLOAD PUSH3 0x1B16 CODESIZE SUB DUP1 PUSH3 0x1B16 DUP4 CODECOPY DUP2 DUP2 ADD PUSH1 0x40 MSTORE DUP2 ADD SWAP1 PUSH3 0x37 SWAP2 SWAP1 PUSH3 0x124 JUMP JUMPDEST PUSH3 0x53 PUSH8 0xEBA6F9442E067F84 PUSH1 0xC0 SHL PUSH3 0x10A PUSH1 0x20 SHL PUSH1 0x20 SHR JUMP JUMPDEST PUSH3 0x6F PUSH8 0xC9C57152C98B3142 PUSH1 0xC0 SHL PUSH3 0x10A PUSH1 0x20 SHL PUSH1 0x20 SHR JUMP JUMPDEST DUP1 PUSH1 0x2 PUSH1 0x0 PUSH2 0x100 EXP DUP2 SLOAD DUP2 PUSH20 0xFFFFFFFFFFFFFFFFFFFFFFFFFFFFFFFFFFFFFFFF MUL NOT AND SWAP1 DUP4 PUSH20 0xFFFFFFFFFFFFFFFFFFFFFFFFFFFFFFFFFFFFFFFF AND MUL OR SWAP1 SSTORE POP PUSH3 0xCC PUSH8 0xD5C0A1F176DA864A PUSH1 0xC0 SHL PUSH3 0x10A PUSH1 0x20 SHL PUSH1 0x20 SHR JUMP JUMPDEST CALLER PUSH20 0xFFFFFFFFFFFFFFFFFFFFFFFFFFFFFFFFFFFFFFFF AND PUSH1 0x80 DUP2 PUSH20 0xFFFFFFFFFFFFFFFFFFFFFFFFFFFFFFFFFFFFFFFF AND PUSH1 0x60 SHL DUP2 MSTORE POP POP POP PUSH3 0x1A9 JUMP JUMPDEST POP JUMP JUMPDEST PUSH1 0x0 DUP2 MLOAD SWAP1 POP PUSH3 0x11E DUP2 PUSH3 0x18F JUMP JUMPDEST SWAP3 SWAP2 POP POP JUMP JUMPDEST PUSH1 0x0 PUSH1 0x20 DUP3 DUP5 SUB SLT ISZERO PUSH3 0x13D JUMPI PUSH3 0x13C PUSH3 0x18A JUMP JUMPDEST JUMPDEST PUSH1 0x0 PUSH3 0x14D DUP5 DUP3 DUP6 ADD PUSH3 0x10D JUMP JUMPDEST SWAP2 POP POP SWAP3 SWAP2 POP POP JUMP JUMPDEST PUSH1 0x0 PUSH3 0x163 DUP3 PUSH3 0x16A JUMP JUMPDEST SWAP1 POP SWAP2 SWAP1 POP JUMP JUMPDEST PUSH1 0x0 PUSH20 0xFFFFFFFFFFFFFFFFFFFFFFFFFFFFFFFFFFFFFFFF DUP3 AND SWAP1 POP SWAP2 SWAP1 POP JUMP JUMPDEST PUSH1 0x0 DUP1 REVERT JUMPDEST PUSH3 0x19A DUP2 PUSH3 0x156 JUMP JUMPDEST DUP2 EQ PUSH3 0x1A6 JUMPI PUSH1 0x0 DUP1 REVERT JUMPDEST POP JUMP JUMPDEST PUSH1 0x80 MLOAD PUSH1 0x60 SHR PUSH2 0x1932 PUSH3 0x1E4 PUSH1 0x0 CODECOPY PUSH1 0x0 DUP2 DUP2 PUSH2 0x2F6 ADD MSTORE DUP2 DUP2 PUSH2 0x58D ADD MSTORE DUP2 DUP2 PUSH2 0x7FF ADD MSTORE DUP2 DUP2 PUSH2 0xB86 ADD MSTORE PUSH2 0xEA8 ADD MSTORE PUSH2 0x1932 PUSH1 0x0 RETURN INVALID PUSH1 0x80 PUSH1 0x40 MSTORE PUSH1 0x4 CALLDATASIZE LT PUSH2 0x91 JUMPI PUSH1 0x0 CALLDATALOAD PUSH1 0xE0 SHR DUP1 PUSH4 0x893D20E8 GT PUSH2 0x59 JUMPI DUP1 PUSH4 0x893D20E8 EQ PUSH2 0x16B JUMPI DUP1 PUSH4 0x9E87A5CD EQ PUSH2 0x196 JUMPI DUP1 PUSH4 0xB60D4288 EQ PUSH2 0x1C1 JUMPI DUP1 PUSH4 0xBE2693F0 EQ PUSH2 0x1CB JUMPI DUP1 PUSH4 0xD7B4750C EQ PUSH2 0x1E2 JUMPI PUSH2 0x91 JUMP JUMPDEST DUP1 PUSH4 0x343FB25 EQ PUSH2 0x96 JUMPI DUP1 PUSH4 0x3CCFD60B EQ PUSH2 0xD3 JUMPI DUP1 PUSH4 0x4DD7F383 EQ PUSH2 0xEA JUMPI DUP1 PUSH4 0x5DC65880 EQ PUSH2 0x115 JUMPI DUP1 PUSH4 0x6B69A592 EQ PUSH2 0x140 JUMPI JUMPDEST PUSH1 0x0 DUP1 REVERT JUMPDEST CALLVALUE DUP1 ISZERO PUSH2 0xA2 JUMPI PUSH1 0x0 DUP1 REVERT JUMPDEST POP PUSH2 0xBD PUSH1 0x4 DUP1 CALLDATASIZE SUB DUP2 ADD SWAP1 PUSH2 0xB8 SWAP2 SWAP1 PUSH2 0x12F6 JUMP JUMPDEST PUSH2 0x21F JUMP JUMPDEST PUSH1 0x40 MLOAD PUSH2 0xCA SWAP2 SWAP1 PUSH2 0x14A9 JUMP JUMPDEST PUSH1 0x40 MLOAD DUP1 SWAP2 SUB SWAP1 RETURN JUMPDEST CALLVALUE DUP1 ISZERO PUSH2 0xDF JUMPI PUSH1 0x0 DUP1 REVERT JUMPDEST POP PUSH2 0xE8 PUSH2 0x2A4 JUMP JUMPDEST STOP JUMPDEST CALLVALUE DUP1 ISZERO PUSH2 0xF6 JUMPI PUSH1 0x0 DUP1 REVERT JUMPDEST POP PUSH2 0xFF PUSH2 0x786 JUMP JUMPDEST PUSH1 0x40 MLOAD PUSH2 0x10C SWAP2 SWAP1 PUSH2 0x1453 JUMP JUMPDEST PUSH1 0x40 MLOAD DUP1 SWAP2 SUB SWAP1 RETURN JUMPDEST CALLVALUE DUP1 ISZERO PUSH2 0x121 JUMPI PUSH1 0x0 DUP1 REVERT JUMPDEST POP PUSH2 0x12A PUSH2 0x7AC JUMP JUMPDEST PUSH1 0x40 MLOAD PUSH2 0x137 SWAP2 SWAP1 PUSH2 0x14A9 JUMP JUMPDEST PUSH1 0x40 MLOAD DUP1 SWAP2 SUB SWAP1 RETURN JUMPDEST CALLVALUE DUP1 ISZERO PUSH2 0x14C JUMPI PUSH1 0x0 DUP1 REVERT JUMPDEST POP PUSH2 0x155 PUSH2 0x7B2 JUMP JUMPDEST PUSH1 0x40 MLOAD PUSH2 0x162 SWAP2 SWAP1 PUSH2 0x14A9 JUMP JUMPDEST PUSH1 0x40 MLOAD DUP1 SWAP2 SUB SWAP1 RETURN JUMPDEST CALLVALUE DUP1 ISZERO PUSH2 0x177 JUMPI PUSH1 0x0 DUP1 REVERT JUMPDEST POP PUSH2 0x180 PUSH2 0x7BF JUMP JUMPDEST PUSH1 0x40 MLOAD PUSH2 0x18D SWAP2 SWAP1 PUSH2 0x1453 JUMP JUMPDEST PUSH1 0x40 MLOAD DUP1 SWAP2 SUB SWAP1 RETURN JUMPDEST CALLVALUE DUP1 ISZERO PUSH2 0x1A2 JUMPI PUSH1 0x0 DUP1 REVERT JUMPDEST POP PUSH2 0x1AB PUSH2 0x823 JUMP JUMPDEST PUSH1 0x40 MLOAD PUSH2 0x1B8 SWAP2 SWAP1 PUSH2 0x146E JUMP JUMPDEST PUSH1 0x40 MLOAD DUP1 SWAP2 SUB SWAP1 RETURN JUMPDEST PUSH2 0x1C9 PUSH2 0x889 JUMP JUMPDEST STOP JUMPDEST CALLVALUE DUP1 ISZERO PUSH2 0x1D7 JUMPI PUSH1 0x0 DUP1 REVERT JUMPDEST POP PUSH2 0x1E0 PUSH2 0xB34 JUMP JUMPDEST STOP JUMPDEST CALLVALUE DUP1 ISZERO PUSH2 0x1EE JUMPI PUSH1 0x0 DUP1 REVERT JUMPDEST POP PUSH2 0x209 PUSH1 0x4 DUP1 CALLDATASIZE SUB DUP2 ADD SWAP1 PUSH2 0x204 SWAP2 SWAP1 PUSH2 0x1323 JUMP JUMPDEST PUSH2 0xF8E JUMP JUMPDEST PUSH1 0x40 MLOAD PUSH2 0x216 SWAP2 SWAP1 PUSH2 0x1453 JUMP JUMPDEST PUSH1 0x40 MLOAD DUP1 SWAP2 SUB SWAP1 RETURN JUMPDEST PUSH1 0x0 PUSH2 0x235 PUSH8 0x131A11DFDA29A883 PUSH1 0xC0 SHL PUSH2 0x1012 JUMP JUMPDEST PUSH2 0x249 PUSH8 0x9C3652FEA882637E PUSH1 0xC0 SHL PUSH2 0x1012 JUMP JUMPDEST PUSH2 0x25D PUSH8 0x2B478576F6E099A2 PUSH1 0xC0 SHL PUSH2 0x1012 JUMP JUMPDEST PUSH1 0x1 PUSH1 0x0 DUP4 PUSH20 0xFFFFFFFFFFFFFFFFFFFFFFFFFFFFFFFFFFFFFFFF AND PUSH20 0xFFFFFFFFFFFFFFFFFFFFFFFFFFFFFFFFFFFFFFFF AND DUP2 MSTORE PUSH1 0x20 ADD SWAP1 DUP2 MSTORE PUSH1 0x20 ADD PUSH1 0x0 KECCAK256 SLOAD SWAP1 POP SWAP2 SWAP1 POP JUMP JUMPDEST PUSH2 0x2B8 PUSH8 0x6B2CA27BA731FD0 PUSH1 0xC0 SHL PUSH2 0x1012 JUMP JUMPDEST PUSH2 0x2CC PUSH8 0xE6F461CDCE85A4EF PUSH1 0xC0 SHL PUSH2 0x1012 JUMP JUMPDEST PUSH2 0x2E0 PUSH8 0x94FCA8FA82CEDAD4 PUSH1 0xC0 SHL PUSH2 0x1012 JUMP JUMPDEST PUSH2 0x2F4 PUSH8 0xC3D39265C000FCB6 PUSH1 0xC0 SHL PUSH2 0x1012 JUMP JUMPDEST PUSH32 0x0 PUSH20 0xFFFFFFFFFFFFFFFFFFFFFFFFFFFFFFFFFFFFFFFF AND CALLER PUSH20 0xFFFFFFFFFFFFFFFFFFFFFFFFFFFFFFFFFFFFFFFF AND EQ PUSH2 0x38D JUMPI PUSH2 0x35B PUSH8 0xD2FFDB77D736010A PUSH1 0xC0 SHL PUSH2 0x1012 JUMP JUMPDEST PUSH1 0x40 MLOAD PUSH32 0x579610DB00000000000000000000000000000000000000000000000000000000 DUP2 MSTORE PUSH1 0x4 ADD PUSH1 0x40 MLOAD DUP1 SWAP2 SUB SWAP1 REVERT JUMPDEST PUSH2 0x3A1 PUSH8 0x5AA431F41B990989 PUSH1 0xC0 SHL PUSH2 0x1012 JUMP JUMPDEST PUSH2 0x3B5 PUSH8 0xA4DF6B02B09D91A9 PUSH1 0xC0 SHL PUSH2 0x1012 JUMP JUMPDEST PUSH2 0x3C9 PUSH8 0x5F4F6038CB3F198E PUSH1 0xC0 SHL PUSH2 0x1012 JUMP JUMPDEST PUSH2 0x3DD PUSH8 0x1262D1C21A2D140B PUSH1 0xC0 SHL PUSH2 0x1012 JUMP JUMPDEST PUSH2 0x3F1 PUSH8 0xD85722EA430CA8CA PUSH1 0xC0 SHL PUSH2 0x1012 JUMP JUMPDEST PUSH2 0x405 PUSH8 0x861B3650496D1F1F PUSH1 0xC0 SHL PUSH2 0x1012 JUMP JUMPDEST PUSH1 0x0 JUMPDEST PUSH1 0x0 DUP1 SLOAD SWAP1 POP DUP2 LT ISZERO PUSH2 0x4EC JUMPI PUSH2 0x429 PUSH8 0x31645DCB79B6E016 PUSH1 0xC0 SHL PUSH2 0x1012 JUMP JUMPDEST PUSH2 0x43D PUSH8 0x240D6F1772023F1B PUSH1 0xC0 SHL PUSH2 0x1012 JUMP JUMPDEST PUSH1 0x0 DUP1 DUP3 DUP2 SLOAD DUP2 LT PUSH2 0x452 JUMPI PUSH2 0x451 PUSH2 0x1811 JUMP JUMPDEST JUMPDEST SWAP1 PUSH1 0x0 MSTORE PUSH1 0x20 PUSH1 0x0 KECCAK256 ADD PUSH1 0x0 SWAP1 SLOAD SWAP1 PUSH2 0x100 EXP SWAP1 DIV PUSH20 0xFFFFFFFFFFFFFFFFFFFFFFFFFFFFFFFFFFFFFFFF AND SWAP1 POP PUSH2 0x493 PUSH8 0xCA38D58BE45F5E05 PUSH1 0xC0 SHL PUSH2 0x1012 JUMP JUMPDEST PUSH1 0x0 PUSH1 0x1 PUSH1 0x0 DUP4 PUSH20 0xFFFFFFFFFFFFFFFFFFFFFFFFFFFFFFFFFFFFFFFF AND PUSH20 0xFFFFFFFFFFFFFFFFFFFFFFFFFFFFFFFFFFFFFFFF AND DUP2 MSTORE PUSH1 0x20 ADD SWAP1 DUP2 MSTORE PUSH1 0x20 ADD PUSH1 0x0 KECCAK256 DUP2 SWAP1 SSTORE POP POP DUP1 DUP1 PUSH2 0x4E4 SWAP1 PUSH2 0x176A JUMP JUMPDEST SWAP2 POP POP PUSH2 0x408 JUMP JUMPDEST POP PUSH2 0x501 PUSH8 0x4C46BE553D022252 PUSH1 0xC0 SHL PUSH2 0x1012 JUMP JUMPDEST PUSH1 0x0 PUSH8 0xFFFFFFFFFFFFFFFF DUP2 GT ISZERO PUSH2 0x51C JUMPI PUSH2 0x51B PUSH2 0x1840 JUMP JUMPDEST JUMPDEST PUSH1 0x40 MLOAD SWAP1 DUP1 DUP3 MSTORE DUP1 PUSH1 0x20 MUL PUSH1 0x20 ADD DUP3 ADD PUSH1 0x40 MSTORE DUP1 ISZERO PUSH2 0x54A JUMPI DUP2 PUSH1 0x20 ADD PUSH1 0x20 DUP3 MUL DUP1 CALLDATASIZE DUP4 CALLDATACOPY DUP1 DUP3 ADD SWAP2 POP POP SWAP1 POP JUMPDEST POP PUSH1 0x0 SWAP1 DUP1 MLOAD SWAP1 PUSH1 0x20 ADD SWAP1 PUSH2 0x560 SWAP3 SWAP2 SWAP1 PUSH2 0x11E6 JUMP JUMPDEST POP PUSH2 0x575 PUSH8 0xC0088CEA228BF99 PUSH1 0xC0 SHL PUSH2 0x1012 JUMP JUMPDEST PUSH2 0x589 PUSH8 0xACDDAF89CFB71143 PUSH1 0xC0 SHL PUSH2 0x1012 JUMP JUMPDEST PUSH1 0x0 PUSH32 0x0 PUSH20 0xFFFFFFFFFFFFFFFFFFFFFFFFFFFFFFFFFFFFFFFF AND PUSH1 0x64 PUSH1 0x61 SELFBALANCE PUSH2 0x5D1 SWAP2 SWAP1 PUSH2 0x167E JUMP JUMPDEST PUSH2 0x5DB SWAP2 SWAP1 PUSH2 0x1536 JUMP JUMPDEST PUSH1 0x40 MLOAD PUSH2 0x5E7 SWAP1 PUSH2 0x143E JUMP JUMPDEST PUSH1 0x0 PUSH1 0x40 MLOAD DUP1 DUP4 SUB DUP2 DUP6 DUP8 GAS CALL SWAP3 POP POP POP RETURNDATASIZE DUP1 PUSH1 0x0 DUP2 EQ PUSH2 0x624 JUMPI PUSH1 0x40 MLOAD SWAP2 POP PUSH1 0x1F NOT PUSH1 0x3F RETURNDATASIZE ADD AND DUP3 ADD PUSH1 0x40 MSTORE RETURNDATASIZE DUP3 MSTORE RETURNDATASIZE PUSH1 0x0 PUSH1 0x20 DUP5 ADD RETURNDATACOPY PUSH2 0x629 JUMP JUMPDEST PUSH1 0x60 SWAP2 POP JUMPDEST POP POP SWAP1 POP PUSH2 0x641 PUSH8 0x1DB7C21A23607870 PUSH1 0xC0 SHL PUSH2 0x1012 JUMP JUMPDEST PUSH2 0x655 PUSH8 0xB42AD5C5E2B1359D PUSH1 0xC0 SHL PUSH2 0x1012 JUMP JUMPDEST PUSH2 0x669 PUSH8 0xC75BDD568C4B9C9 PUSH1 0xC0 SHL PUSH2 0x1012 JUMP JUMPDEST DUP1 PUSH2 0x673 JUMPI PUSH1 0x0 DUP1 REVERT JUMPDEST PUSH2 0x687 PUSH8 0x20CAEEE97F90E5D0 PUSH1 0xC0 SHL PUSH2 0x1012 JUMP JUMPDEST PUSH2 0x69B PUSH8 0x98C2DA0284582D6 PUSH1 0xC0 SHL PUSH2 0x1012 JUMP JUMPDEST PUSH1 0x4 PUSH1 0x0 SWAP1 SLOAD SWAP1 PUSH2 0x100 EXP SWAP1 DIV PUSH20 0xFFFFFFFFFFFFFFFFFFFFFFFFFFFFFFFFFFFFFFFF AND PUSH20 0xFFFFFFFFFFFFFFFFFFFFFFFFFFFFFFFFFFFFFFFF AND SELFBALANCE PUSH1 0x40 MLOAD PUSH2 0x6E1 SWAP1 PUSH2 0x143E JUMP JUMPDEST PUSH1 0x0 PUSH1 0x40 MLOAD DUP1 DUP4 SUB DUP2 DUP6 DUP8 GAS CALL SWAP3 POP POP POP RETURNDATASIZE DUP1 PUSH1 0x0 DUP2 EQ PUSH2 0x71E JUMPI PUSH1 0x40 MLOAD SWAP2 POP PUSH1 0x1F NOT PUSH1 0x3F RETURNDATASIZE ADD AND DUP3 ADD PUSH1 0x40 MSTORE RETURNDATASIZE DUP3 MSTORE RETURNDATASIZE PUSH1 0x0 PUSH1 0x20 DUP5 ADD RETURNDATACOPY PUSH2 0x723 JUMP JUMPDEST PUSH1 0x60 SWAP2 POP JUMPDEST POP POP DUP1 SWAP2 POP POP PUSH2 0x73D PUSH8 0xBBD43E611AA10A83 PUSH1 0xC0 SHL PUSH2 0x1012 JUMP JUMPDEST PUSH2 0x751 PUSH8 0xE9111A23161673AB PUSH1 0xC0 SHL PUSH2 0x1012 JUMP JUMPDEST PUSH2 0x765 PUSH8 0x7600A62DAB25AA40 PUSH1 0xC0 SHL PUSH2 0x1012 JUMP JUMPDEST DUP1 PUSH2 0x76F JUMPI PUSH1 0x0 DUP1 REVERT JUMPDEST PUSH2 0x783 PUSH8 0xC84E5C40477F4B60 PUSH1 0xC0 SHL PUSH2 0x1012 JUMP JUMPDEST POP JUMP JUMPDEST PUSH1 0x4 PUSH1 0x0 SWAP1 SLOAD SWAP1 PUSH2 0x100 EXP SWAP1 DIV PUSH20 0xFFFFFFFFFFFFFFFFFFFFFFFFFFFFFFFFFFFFFFFF AND DUP2 JUMP JUMPDEST PUSH1 0x3 SLOAD DUP2 JUMP JUMPDEST PUSH9 0x2B5E3AF16B1880000 DUP2 JUMP JUMPDEST PUSH1 0x0 PUSH2 0x7D5 PUSH8 0x504A911992F6C0EE PUSH1 0xC0 SHL PUSH2 0x1012 JUMP JUMPDEST PUSH2 0x7E9 PUSH8 0xDEE361C7528C74C6 PUSH1 0xC0 SHL PUSH2 0x1012 JUMP JUMPDEST PUSH2 0x7FD PUSH8 0x7DBD63E61B0B473F PUSH1 0xC0 SHL PUSH2 0x1012 JUMP JUMPDEST PUSH32 0x0 SWAP1 POP SWAP1 JUMP JUMPDEST PUSH1 0x0 PUSH2 0x839 PUSH8 0xE9C40094653D00E PUSH1 0xC0 SHL PUSH2 0x1012 JUMP JUMPDEST PUSH2 0x84D PUSH8 0xF07FE750180BA503 PUSH1 0xC0 SHL PUSH2 0x1012 JUMP JUMPDEST PUSH2 0x861 PUSH8 0xBB04E98A24D8A44B PUSH1 0xC0 SHL PUSH2 0x1012 JUMP JUMPDEST PUSH1 0x2 PUSH1 0x0 SWAP1 SLOAD SWAP1 PUSH2 0x100 EXP SWAP1 DIV PUSH20 0xFFFFFFFFFFFFFFFFFFFFFFFFFFFFFFFFFFFFFFFF AND SWAP1 POP SWAP1 JUMP JUMPDEST PUSH2 0x89D PUSH8 0xC1944D2F459697C8 PUSH1 0xC0 SHL PUSH2 0x1012 JUMP JUMPDEST PUSH2 0x8B1 PUSH8 0x85CADAA85BA30EB8 PUSH1 0xC0 SHL PUSH2 0x1012 JUMP JUMPDEST PUSH2 0x8C5 PUSH8 0x39E2527E43565A90 PUSH1 0xC0 SHL PUSH2 0x1012 JUMP JUMPDEST PUSH2 0x8D9 PUSH8 0x3C4D9A5A6083361D PUSH1 0xC0 SHL PUSH2 0x1012 JUMP JUMPDEST PUSH9 0x2B5E3AF16B1880000 PUSH2 0x918 PUSH1 0x2 PUSH1 0x0 SWAP1 SLOAD SWAP1 PUSH2 0x100 EXP SWAP1 DIV PUSH20 0xFFFFFFFFFFFFFFFFFFFFFFFFFFFFFFFFFFFFFFFF AND CALLVALUE PUSH2 0x1015 SWAP1 SWAP2 SWAP1 PUSH4 0xFFFFFFFF AND JUMP JUMPDEST LT ISZERO PUSH2 0x959 JUMPI PUSH1 0x40 MLOAD PUSH32 0x8C379A000000000000000000000000000000000000000000000000000000000 DUP2 MSTORE PUSH1 0x4 ADD PUSH2 0x950 SWAP1 PUSH2 0x1489 JUMP JUMPDEST PUSH1 0x40 MLOAD DUP1 SWAP2 SUB SWAP1 REVERT JUMPDEST PUSH2 0x96D PUSH8 0x9190B219647E698B PUSH1 0xC0 SHL PUSH2 0x1012 JUMP JUMPDEST PUSH2 0x981 PUSH8 0x926B1584DFB23AF5 PUSH1 0xC0 SHL PUSH2 0x1012 JUMP JUMPDEST CALLVALUE PUSH1 0x1 PUSH1 0x0 CALLER PUSH20 0xFFFFFFFFFFFFFFFFFFFFFFFFFFFFFFFFFFFFFFFF AND PUSH20 0xFFFFFFFFFFFFFFFFFFFFFFFFFFFFFFFFFFFFFFFF AND DUP2 MSTORE PUSH1 0x20 ADD SWAP1 DUP2 MSTORE PUSH1 0x20 ADD PUSH1 0x0 KECCAK256 PUSH1 0x0 DUP3 DUP3 SLOAD PUSH2 0x9D0 SWAP2 SWAP1 PUSH2 0x14E0 JUMP JUMPDEST SWAP3 POP POP DUP2 SWAP1 SSTORE POP PUSH2 0x9EB PUSH8 0xB3E8EBCBA8A0BBE8 PUSH1 0xC0 SHL PUSH2 0x1012 JUMP JUMPDEST PUSH2 0x9FF PUSH8 0x897FE3088AC4CA8F PUSH1 0xC0 SHL PUSH2 0x1012 JUMP JUMPDEST PUSH1 0x0 CALLER SWAP1 DUP1 PUSH1 0x1 DUP2 SLOAD ADD DUP1 DUP3 SSTORE DUP1 SWAP2 POP POP PUSH1 0x1 SWAP1 SUB SWAP1 PUSH1 0x0 MSTORE PUSH1 0x20 PUSH1 0x0 KECCAK256 ADD PUSH1 0x0 SWAP1 SWAP2 SWAP1 SWAP2 SWAP1 SWAP2 PUSH2 0x100 EXP DUP2 SLOAD DUP2 PUSH20 0xFFFFFFFFFFFFFFFFFFFFFFFFFFFFFFFFFFFFFFFF MUL NOT AND SWAP1 DUP4 PUSH20 0xFFFFFFFFFFFFFFFFFFFFFFFFFFFFFFFFFFFFFFFF AND MUL OR SWAP1 SSTORE POP PUSH2 0xA76 PUSH8 0x956188CC5F8A8C1 PUSH1 0xC0 SHL PUSH2 0x1012 JUMP JUMPDEST PUSH2 0xA8A PUSH8 0xE0581F30B721E846 PUSH1 0xC0 SHL PUSH2 0x1012 JUMP JUMPDEST PUSH1 0x3 SLOAD CALLVALUE GT ISZERO PUSH2 0xB1D JUMPI PUSH2 0xAA8 PUSH8 0xB95DC4860A1FC782 PUSH1 0xC0 SHL PUSH2 0x1012 JUMP JUMPDEST PUSH2 0xABC PUSH8 0xEC08A3AE6EF7671E PUSH1 0xC0 SHL PUSH2 0x1012 JUMP JUMPDEST CALLVALUE PUSH1 0x3 DUP2 SWAP1 SSTORE POP PUSH2 0xAD7 PUSH8 0x29486E6F4D932866 PUSH1 0xC0 SHL PUSH2 0x1012 JUMP JUMPDEST CALLER PUSH1 0x4 PUSH1 0x0 PUSH2 0x100 EXP DUP2 SLOAD DUP2 PUSH20 0xFFFFFFFFFFFFFFFFFFFFFFFFFFFFFFFFFFFFFFFF MUL NOT AND SWAP1 DUP4 PUSH20 0xFFFFFFFFFFFFFFFFFFFFFFFFFFFFFFFFFFFFFFFF AND MUL OR SWAP1 SSTORE POP PUSH2 0xB32 JUMP JUMPDEST PUSH2 0xB31 PUSH8 0x36CC736EB411EC50 PUSH1 0xC0 SHL PUSH2 0x1012 JUMP JUMPDEST JUMPDEST JUMP JUMPDEST PUSH2 0xB48 PUSH8 0x80DC456A6EAF9F8F PUSH1 0xC0 SHL PUSH2 0x1012 JUMP JUMPDEST PUSH2 0xB5C PUSH8 0xE6F461CDCE85A4EF PUSH1 0xC0 SHL PUSH2 0x1012 JUMP JUMPDEST PUSH2 0xB70 PUSH8 0x94FCA8FA82CEDAD4 PUSH1 0xC0 SHL PUSH2 0x1012 JUMP JUMPDEST PUSH2 0xB84 PUSH8 0xC3D39265C000FCB6 PUSH1 0xC0 SHL PUSH2 0x1012 JUMP JUMPDEST PUSH32 0x0 PUSH20 0xFFFFFFFFFFFFFFFFFFFFFFFFFFFFFFFFFFFFFFFF AND CALLER PUSH20 0xFFFFFFFFFFFFFFFFFFFFFFFFFFFFFFFFFFFFFFFF AND EQ PUSH2 0xC1D JUMPI PUSH2 0xBEB PUSH8 0xD2FFDB77D736010A PUSH1 0xC0 SHL PUSH2 0x1012 JUMP JUMPDEST PUSH1 0x40 MLOAD PUSH32 0x579610DB00000000000000000000000000000000000000000000000000000000 DUP2 MSTORE PUSH1 0x4 ADD PUSH1 0x40 MLOAD DUP1 SWAP2 SUB SWAP1 REVERT JUMPDEST PUSH2 0xC31 PUSH8 0x5AA431F41B990989 PUSH1 0xC0 SHL PUSH2 0x1012 JUMP JUMPDEST PUSH2 0xC45 PUSH8 0xA4DF6B02B09D91A9 PUSH1 0xC0 SHL PUSH2 0x1012 JUMP JUMPDEST PUSH2 0xC59 PUSH8 0x735417DF9EA0D253 PUSH1 0xC0 SHL PUSH2 0x1012 JUMP JUMPDEST PUSH2 0xC6D PUSH8 0xADFDA7ED19B159E8 PUSH1 0xC0 SHL PUSH2 0x1012 JUMP JUMPDEST PUSH2 0xC81 PUSH8 0xE6EE917A2E7B1765 PUSH1 0xC0 SHL PUSH2 0x1012 JUMP JUMPDEST PUSH2 0xC95 PUSH8 0x2E0B6836A66EEDBC PUSH1 0xC0 SHL PUSH2 0x1012 JUMP JUMPDEST PUSH1 0x0 DUP1 DUP1 SLOAD DUP1 PUSH1 0x20 MUL PUSH1 0x20 ADD PUSH1 0x40 MLOAD SWAP1 DUP2 ADD PUSH1 0x40 MSTORE DUP1 SWAP3 SWAP2 SWAP1 DUP2 DUP2 MSTORE PUSH1 0x20 ADD DUP3 DUP1 SLOAD DUP1 ISZERO PUSH2 0xD18 JUMPI PUSH1 0x20 MUL DUP3 ADD SWAP2 SWAP1 PUSH1 0x0 MSTORE PUSH1 0x20 PUSH1 0x0 KECCAK256 SWAP1 JUMPDEST DUP2 PUSH1 0x0 SWAP1 SLOAD SWAP1 PUSH2 0x100 EXP SWAP1 DIV PUSH20 0xFFFFFFFFFFFFFFFFFFFFFFFFFFFFFFFFFFFFFFFF AND PUSH20 0xFFFFFFFFFFFFFFFFFFFFFFFFFFFFFFFFFFFFFFFF AND DUP2 MSTORE PUSH1 0x20 ADD SWAP1 PUSH1 0x1 ADD SWAP1 DUP1 DUP4 GT PUSH2 0xCCE JUMPI JUMPDEST POP POP POP POP POP SWAP1 POP PUSH2 0xD33 PUSH8 0x4A9604527E5836A7 PUSH1 0xC0 SHL PUSH2 0x1012 JUMP JUMPDEST PUSH2 0xD47 PUSH8 0xBE648591E59C89C1 PUSH1 0xC0 SHL PUSH2 0x1012 JUMP JUMPDEST PUSH1 0x0 JUMPDEST DUP2 MLOAD DUP2 LT ISZERO PUSH2 0xE07 JUMPI PUSH2 0xD67 PUSH8 0x4440B3CBD80A2D38 PUSH1 0xC0 SHL PUSH2 0x1012 JUMP JUMPDEST PUSH2 0xD7B PUSH8 0x65B2800D3DE7A5A3 PUSH1 0xC0 SHL PUSH2 0x1012 JUMP JUMPDEST PUSH1 0x0 DUP3 DUP3 DUP2 MLOAD DUP2 LT PUSH2 0xD90 JUMPI PUSH2 0xD8F PUSH2 0x1811 JUMP JUMPDEST JUMPDEST PUSH1 0x20 MUL PUSH1 0x20 ADD ADD MLOAD SWAP1 POP PUSH2 0xDAE PUSH8 0x978B1C185294BB2 PUSH1 0xC0 SHL PUSH2 0x1012 JUMP JUMPDEST PUSH1 0x0 PUSH1 0x1 PUSH1 0x0 DUP4 PUSH20 0xFFFFFFFFFFFFFFFFFFFFFFFFFFFFFFFFFFFFFFFF AND PUSH20 0xFFFFFFFFFFFFFFFFFFFFFFFFFFFFFFFFFFFFFFFF AND DUP2 MSTORE PUSH1 0x20 ADD SWAP1 DUP2 MSTORE PUSH1 0x20 ADD PUSH1 0x0 KECCAK256 DUP2 SWAP1 SSTORE POP POP DUP1 DUP1 PUSH2 0xDFF SWAP1 PUSH2 0x176A JUMP JUMPDEST SWAP2 POP POP PUSH2 0xD4A JUMP JUMPDEST POP PUSH2 0xE1C PUSH8 0x26616E36BED42F3C PUSH1 0xC0 SHL PUSH2 0x1012 JUMP JUMPDEST PUSH1 0x0 PUSH8 0xFFFFFFFFFFFFFFFF DUP2 GT ISZERO PUSH2 0xE37 JUMPI PUSH2 0xE36 PUSH2 0x1840 JUMP JUMPDEST JUMPDEST PUSH1 0x40 MLOAD SWAP1 DUP1 DUP3 MSTORE DUP1 PUSH1 0x20 MUL PUSH1 0x20 ADD DUP3 ADD PUSH1 0x40 MSTORE DUP1 ISZERO PUSH2 0xE65 JUMPI DUP2 PUSH1 0x20 ADD PUSH1 0x20 DUP3 MUL DUP1 CALLDATASIZE DUP4 CALLDATACOPY DUP1 DUP3 ADD SWAP2 POP POP SWAP1 POP JUMPDEST POP PUSH1 0x0 SWAP1 DUP1 MLOAD SWAP1 PUSH1 0x20 ADD SWAP1 PUSH2 0xE7B SWAP3 SWAP2 SWAP1 PUSH2 0x11E6 JUMP JUMPDEST POP PUSH2 0xE90 PUSH8 0xE44E370E2115ED52 PUSH1 0xC0 SHL PUSH2 0x1012 JUMP JUMPDEST PUSH2 0xEA4 PUSH8 0x52832C778E89DDBF PUSH1 0xC0 SHL PUSH2 0x1012 JUMP JUMPDEST PUSH1 0x0 PUSH32 0x0 PUSH20 0xFFFFFFFFFFFFFFFFFFFFFFFFFFFFFFFFFFFFFFFF AND SELFBALANCE PUSH1 0x40 MLOAD PUSH2 0xEEA SWAP1 PUSH2 0x143E JUMP JUMPDEST PUSH1 0x0 PUSH1 0x40 MLOAD DUP1 DUP4 SUB DUP2 DUP6 DUP8 GAS CALL SWAP3 POP POP POP RETURNDATASIZE DUP1 PUSH1 0x0 DUP2 EQ PUSH2 0xF27 JUMPI PUSH1 0x40 MLOAD SWAP2 POP PUSH1 0x1F NOT PUSH1 0x3F RETURNDATASIZE ADD AND DUP3 ADD PUSH1 0x40 MSTORE RETURNDATASIZE DUP3 MSTORE RETURNDATASIZE PUSH1 0x0 PUSH1 0x20 DUP5 ADD RETURNDATACOPY PUSH2 0xF2C JUMP JUMPDEST PUSH1 0x60 SWAP2 POP JUMPDEST POP POP SWAP1 POP PUSH2 0xF44 PUSH8 0xE1D0A45A0891CBBF PUSH1 0xC0 SHL PUSH2 0x1012 JUMP JUMPDEST PUSH2 0xF58 PUSH8 0xA527C55506534B32 PUSH1 0xC0 SHL PUSH2 0x1012 JUMP JUMPDEST PUSH2 0xF6C PUSH8 0x12A7862DCB9E927C PUSH1 0xC0 SHL PUSH2 0x1012 JUMP JUMPDEST DUP1 PUSH2 0xF76 JUMPI PUSH1 0x0 DUP1 REVERT JUMPDEST PUSH2 0xF8A PUSH8 0x5F7681EC22F57A05 PUSH1 0xC0 SHL PUSH2 0x1012 JUMP JUMPDEST POP POP JUMP JUMPDEST PUSH1 0x0 PUSH2 0xFA4 PUSH8 0xD6581C5543738F85 PUSH1 0xC0 SHL PUSH2 0x1012 JUMP JUMPDEST PUSH2 0xFB8 PUSH8 0x792C57807593005A PUSH1 0xC0 SHL PUSH2 0x1012 JUMP JUMPDEST PUSH2 0xFCC PUSH8 0x7F9634B3A9F8AB4C PUSH1 0xC0 SHL PUSH2 0x1012 JUMP JUMPDEST PUSH1 0x0 DUP3 DUP2 SLOAD DUP2 LT PUSH2 0xFE0 JUMPI PUSH2 0xFDF PUSH2 0x1811 JUMP JUMPDEST JUMPDEST SWAP1 PUSH1 0x0 MSTORE PUSH1 0x20 PUSH1 0x0 KECCAK256 ADD PUSH1 0x0 SWAP1 SLOAD SWAP1 PUSH2 0x100 EXP SWAP1 DIV PUSH20 0xFFFFFFFFFFFFFFFFFFFFFFFFFFFFFFFFFFFFFFFF AND SWAP1 POP SWAP2 SWAP1 POP JUMP JUMPDEST POP JUMP JUMPDEST PUSH1 0x0 PUSH2 0x102B PUSH8 0xDFE75EA47962EF09 PUSH1 0xC0 SHL PUSH2 0x10DE JUMP JUMPDEST PUSH2 0x103F PUSH8 0xF576A010077517C9 PUSH1 0xC0 SHL PUSH2 0x10DE JUMP JUMPDEST PUSH2 0x1053 PUSH8 0x6DEE5F1035F94A77 PUSH1 0xC0 SHL PUSH2 0x10DE JUMP JUMPDEST PUSH1 0x0 PUSH2 0x105E DUP4 PUSH2 0x10E1 JUMP JUMPDEST SWAP1 POP PUSH2 0x1074 PUSH8 0xC5727A2C85365B97 PUSH1 0xC0 SHL PUSH2 0x10DE JUMP JUMPDEST PUSH2 0x1088 PUSH8 0x272A1A94643F2A66 PUSH1 0xC0 SHL PUSH2 0x10DE JUMP JUMPDEST PUSH1 0x0 PUSH8 0xDE0B6B3A7640000 DUP6 DUP4 PUSH2 0x109F SWAP2 SWAP1 PUSH2 0x167E JUMP JUMPDEST PUSH2 0x10A9 SWAP2 SWAP1 PUSH2 0x1536 JUMP JUMPDEST SWAP1 POP PUSH2 0x10BF PUSH8 0x68EF49B35AF088A9 PUSH1 0xC0 SHL PUSH2 0x10DE JUMP JUMPDEST PUSH2 0x10D3 PUSH8 0x6AAF556751FB5A3B PUSH1 0xC0 SHL PUSH2 0x10DE JUMP JUMPDEST DUP1 SWAP3 POP POP POP SWAP3 SWAP2 POP POP JUMP JUMPDEST POP JUMP JUMPDEST PUSH1 0x0 PUSH2 0x10F7 PUSH8 0x99FBD4D13AE76E3A PUSH1 0xC0 SHL PUSH2 0x10DE JUMP JUMPDEST PUSH2 0x110B PUSH8 0x13A770F355A3DE5A PUSH1 0xC0 SHL PUSH2 0x10DE JUMP JUMPDEST PUSH2 0x111F PUSH8 0x6A1DBD5B6DB8C7FB PUSH1 0xC0 SHL PUSH2 0x10DE JUMP JUMPDEST PUSH1 0x0 DUP3 PUSH20 0xFFFFFFFFFFFFFFFFFFFFFFFFFFFFFFFFFFFFFFFF AND PUSH4 0xFEAF968C PUSH1 0x40 MLOAD DUP2 PUSH4 0xFFFFFFFF AND PUSH1 0xE0 SHL DUP2 MSTORE PUSH1 0x4 ADD PUSH1 0xA0 PUSH1 0x40 MLOAD DUP1 DUP4 SUB DUP2 DUP7 DUP1 EXTCODESIZE ISZERO DUP1 ISZERO PUSH2 0x1167 JUMPI PUSH1 0x0 DUP1 REVERT JUMPDEST POP GAS STATICCALL ISZERO DUP1 ISZERO PUSH2 0x117B JUMPI RETURNDATASIZE PUSH1 0x0 DUP1 RETURNDATACOPY RETURNDATASIZE PUSH1 0x0 REVERT JUMPDEST POP POP POP POP PUSH1 0x40 MLOAD RETURNDATASIZE PUSH1 0x1F NOT PUSH1 0x1F DUP3 ADD AND DUP3 ADD DUP1 PUSH1 0x40 MSTORE POP DUP2 ADD SWAP1 PUSH2 0x119F SWAP2 SWAP1 PUSH2 0x1350 JUMP JUMPDEST POP POP POP SWAP2 POP POP PUSH2 0x11B9 PUSH8 0x9C79CF51F2681A60 PUSH1 0xC0 SHL PUSH2 0x10DE JUMP JUMPDEST PUSH2 0x11CD PUSH8 0x1EFBA5608991115D PUSH1 0xC0 SHL PUSH2 0x10DE JUMP JUMPDEST PUSH5 0x2540BE400 DUP2 PUSH2 0x11DE SWAP2 SWAP1 PUSH2 0x1567 JUMP JUMPDEST SWAP2 POP POP SWAP2 SWAP1 POP JUMP JUMPDEST DUP3 DUP1 SLOAD DUP3 DUP3 SSTORE SWAP1 PUSH1 0x0 MSTORE PUSH1 0x20 PUSH1 0x0 KECCAK256 SWAP1 DUP2 ADD SWAP3 DUP3 ISZERO PUSH2 0x125F JUMPI SWAP2 PUSH1 0x20 MUL DUP3 ADD JUMPDEST DUP3 DUP2 GT ISZERO PUSH2 0x125E JUMPI DUP3 MLOAD DUP3 PUSH1 0x0 PUSH2 0x100 EXP DUP2 SLOAD DUP2 PUSH20 0xFFFFFFFFFFFFFFFFFFFFFFFFFFFFFFFFFFFFFFFF MUL NOT AND SWAP1 DUP4 PUSH20 0xFFFFFFFFFFFFFFFFFFFFFFFFFFFFFFFFFFFFFFFF AND MUL OR SWAP1 SSTORE POP SWAP2 PUSH1 0x20 ADD SWAP2 SWAP1 PUSH1 0x1 ADD SWAP1 PUSH2 0x1206 JUMP JUMPDEST JUMPDEST POP SWAP1 POP PUSH2 0x126C SWAP2 SWAP1 PUSH2 0x1270 JUMP JUMPDEST POP SWAP1 JUMP JUMPDEST JUMPDEST DUP1 DUP3 GT ISZERO PUSH2 0x1289 JUMPI PUSH1 0x0 DUP2 PUSH1 0x0 SWAP1 SSTORE POP PUSH1 0x1 ADD PUSH2 0x1271 JUMP JUMPDEST POP SWAP1 JUMP JUMPDEST PUSH1 0x0 DUP2 CALLDATALOAD SWAP1 POP PUSH2 0x129C DUP2 PUSH2 0x18A0 JUMP JUMPDEST SWAP3 SWAP2 POP POP JUMP JUMPDEST PUSH1 0x0 DUP2 MLOAD SWAP1 POP PUSH2 0x12B1 DUP2 PUSH2 0x18B7 JUMP JUMPDEST SWAP3 SWAP2 POP POP JUMP JUMPDEST PUSH1 0x0 DUP2 CALLDATALOAD SWAP1 POP PUSH2 0x12C6 DUP2 PUSH2 0x18CE JUMP JUMPDEST SWAP3 SWAP2 POP POP JUMP JUMPDEST PUSH1 0x0 DUP2 MLOAD SWAP1 POP PUSH2 0x12DB DUP2 PUSH2 0x18CE JUMP JUMPDEST SWAP3 SWAP2 POP POP JUMP JUMPDEST PUSH1 0x0 DUP2 MLOAD SWAP1 POP PUSH2 0x12F0 DUP2 PUSH2 0x18E5 JUMP JUMPDEST SWAP3 SWAP2 POP POP JUMP JUMPDEST PUSH1 0x0 PUSH1 0x20 DUP3 DUP5 SUB SLT ISZERO PUSH2 0x130C JUMPI PUSH2 0x130B PUSH2 0x186F JUMP JUMPDEST JUMPDEST PUSH1 0x0 PUSH2 0x131A DUP5 DUP3 DUP6 ADD PUSH2 0x128D JUMP JUMPDEST SWAP2 POP POP SWAP3 SWAP2 POP POP JUMP JUMPDEST PUSH1 0x0 PUSH1 0x20 DUP3 DUP5 SUB SLT ISZERO PUSH2 0x1339 JUMPI PUSH2 0x1338 PUSH2 0x186F JUMP JUMPDEST JUMPDEST PUSH1 0x0 PUSH2 0x1347 DUP5 DUP3 DUP6 ADD PUSH2 0x12B7 JUMP JUMPDEST SWAP2 POP POP SWAP3 SWAP2 POP POP JUMP JUMPDEST PUSH1 0x0 DUP1 PUSH1 0x0 DUP1 PUSH1 0x0 PUSH1 0xA0 DUP7 DUP9 SUB SLT ISZERO PUSH2 0x136C JUMPI PUSH2 0x136B PUSH2 0x186F JUMP JUMPDEST JUMPDEST PUSH1 0x0 PUSH2 0x137A DUP9 DUP3 DUP10 ADD PUSH2 0x12E1 JUMP JUMPDEST SWAP6 POP POP PUSH1 0x20 PUSH2 0x138B DUP9 DUP3 DUP10 ADD PUSH2 0x12A2 JUMP JUMPDEST SWAP5 POP POP PUSH1 0x40 PUSH2 0x139C DUP9 DUP3 DUP10 ADD PUSH2 0x12CC JUMP JUMPDEST SWAP4 POP POP PUSH1 0x60 PUSH2 0x13AD DUP9 DUP3 DUP10 ADD PUSH2 0x12CC JUMP JUMPDEST SWAP3 POP POP PUSH1 0x80 PUSH2 0x13BE DUP9 DUP3 DUP10 ADD PUSH2 0x12E1 JUMP JUMPDEST SWAP2 POP POP SWAP3 SWAP6 POP SWAP3 SWAP6 SWAP1 SWAP4 POP JUMP JUMPDEST PUSH2 0x13D4 DUP2 PUSH2 0x16D8 JUMP JUMPDEST DUP3 MSTORE POP POP JUMP JUMPDEST PUSH2 0x13E3 DUP2 PUSH2 0x1734 JUMP JUMPDEST DUP3 MSTORE POP POP JUMP JUMPDEST PUSH1 0x0 PUSH2 0x13F6 PUSH1 0x1B DUP4 PUSH2 0x14CF JUMP JUMPDEST SWAP2 POP PUSH2 0x1401 DUP3 PUSH2 0x1874 JUMP JUMPDEST PUSH1 0x20 DUP3 ADD SWAP1 POP SWAP2 SWAP1 POP JUMP JUMPDEST PUSH1 0x0 PUSH2 0x1419 PUSH1 0x0 DUP4 PUSH2 0x14C4 JUMP JUMPDEST SWAP2 POP PUSH2 0x1424 DUP3 PUSH2 0x189D JUMP JUMPDEST PUSH1 0x0 DUP3 ADD SWAP1 POP SWAP2 SWAP1 POP JUMP JUMPDEST PUSH2 0x1438 DUP2 PUSH2 0x1714 JUMP JUMPDEST DUP3 MSTORE POP POP JUMP JUMPDEST PUSH1 0x0 PUSH2 0x1449 DUP3 PUSH2 0x140C JUMP JUMPDEST SWAP2 POP DUP2 SWAP1 POP SWAP2 SWAP1 POP JUMP JUMPDEST PUSH1 0x0 PUSH1 0x20 DUP3 ADD SWAP1 POP PUSH2 0x1468 PUSH1 0x0 DUP4 ADD DUP5 PUSH2 0x13CB JUMP JUMPDEST SWAP3 SWAP2 POP POP JUMP JUMPDEST PUSH1 0x0 PUSH1 0x20 DUP3 ADD SWAP1 POP PUSH2 0x1483 PUSH1 0x0 DUP4 ADD DUP5 PUSH2 0x13DA JUMP JUMPDEST SWAP3 SWAP2 POP POP JUMP JUMPDEST PUSH1 0x0 PUSH1 0x20 DUP3 ADD SWAP1 POP DUP2 DUP2 SUB PUSH1 0x0 DUP4 ADD MSTORE PUSH2 0x14A2 DUP2 PUSH2 0x13E9 JUMP JUMPDEST SWAP1 POP SWAP2 SWAP1 POP JUMP JUMPDEST PUSH1 0x0 PUSH1 0x20 DUP3 ADD SWAP1 POP PUSH2 0x14BE PUSH1 0x0 DUP4 ADD DUP5 PUSH2 0x142F JUMP JUMPDEST SWAP3 SWAP2 POP POP JUMP JUMPDEST PUSH1 0x0 DUP2 SWAP1 POP SWAP3 SWAP2 POP POP JUMP JUMPDEST PUSH1 0x0 DUP3 DUP3 MSTORE PUSH1 0x20 DUP3 ADD SWAP1 POP SWAP3 SWAP2 POP POP JUMP JUMPDEST PUSH1 0x0 PUSH2 0x14EB DUP3 PUSH2 0x1714 JUMP JUMPDEST SWAP2 POP PUSH2 0x14F6 DUP4 PUSH2 0x1714 JUMP JUMPDEST SWAP3 POP DUP3 PUSH32 0xFFFFFFFFFFFFFFFFFFFFFFFFFFFFFFFFFFFFFFFFFFFFFFFFFFFFFFFFFFFFFFFF SUB DUP3 GT ISZERO PUSH2 0x152B JUMPI PUSH2 0x152A PUSH2 0x17B3 JUMP JUMPDEST JUMPDEST DUP3 DUP3 ADD SWAP1 POP SWAP3 SWAP2 POP POP JUMP JUMPDEST PUSH1 0x0 PUSH2 0x1541 DUP3 PUSH2 0x1714 JUMP JUMPDEST SWAP2 POP PUSH2 0x154C DUP4 PUSH2 0x1714 JUMP JUMPDEST SWAP3 POP DUP3 PUSH2 0x155C JUMPI PUSH2 0x155B PUSH2 0x17E2 JUMP JUMPDEST JUMPDEST DUP3 DUP3 DIV SWAP1 POP SWAP3 SWAP2 POP POP JUMP JUMPDEST PUSH1 0x0 PUSH2 0x1572 DUP3 PUSH2 0x16EA JUMP JUMPDEST SWAP2 POP PUSH2 0x157D DUP4 PUSH2 0x16EA JUMP JUMPDEST SWAP3 POP DUP3 PUSH32 0x7FFFFFFFFFFFFFFFFFFFFFFFFFFFFFFFFFFFFFFFFFFFFFFFFFFFFFFFFFFFFFFF DIV DUP3 GT PUSH1 0x0 DUP5 SGT PUSH1 0x0 DUP5 SGT AND AND ISZERO PUSH2 0x15BC JUMPI PUSH2 0x15BB PUSH2 0x17B3 JUMP JUMPDEST JUMPDEST DUP2 PUSH32 0x8000000000000000000000000000000000000000000000000000000000000000 SDIV DUP4 SLT PUSH1 0x0 DUP5 SLT PUSH1 0x0 DUP5 SGT AND AND ISZERO PUSH2 0x15F9 JUMPI PUSH2 0x15F8 PUSH2 0x17B3 JUMP JUMPDEST JUMPDEST DUP3 PUSH32 0x8000000000000000000000000000000000000000000000000000000000000000 SDIV DUP3 SLT PUSH1 0x0 DUP5 SGT PUSH1 0x0 DUP5 SLT AND AND ISZERO PUSH2 0x1636 JUMPI PUSH2 0x1635 PUSH2 0x17B3 JUMP JUMPDEST JUMPDEST DUP3 PUSH32 0x7FFFFFFFFFFFFFFFFFFFFFFFFFFFFFFFFFFFFFFFFFFFFFFFFFFFFFFFFFFFFFFF SDIV DUP3 SLT PUSH1 0x0 DUP5 SLT PUSH1 0x0 DUP5 SLT AND AND ISZERO PUSH2 0x1673 JUMPI PUSH2 0x1672 PUSH2 0x17B3 JUMP JUMPDEST JUMPDEST DUP3 DUP3 MUL SWAP1 POP SWAP3 SWAP2 POP POP JUMP JUMPDEST PUSH1 0x0 PUSH2 0x1689 DUP3 PUSH2 0x1714 JUMP JUMPDEST SWAP2 POP PUSH2 0x1694 DUP4 PUSH2 0x1714 JUMP JUMPDEST SWAP3 POP DUP2 PUSH32 0xFFFFFFFFFFFFFFFFFFFFFFFFFFFFFFFFFFFFFFFFFFFFFFFFFFFFFFFFFFFFFFFF DIV DUP4 GT DUP3 ISZERO ISZERO AND ISZERO PUSH2 0x16CD JUMPI PUSH2 0x16CC PUSH2 0x17B3 JUMP JUMPDEST JUMPDEST DUP3 DUP3 MUL SWAP1 POP SWAP3 SWAP2 POP POP JUMP JUMPDEST PUSH1 0x0 PUSH2 0x16E3 DUP3 PUSH2 0x16F4 JUMP JUMPDEST SWAP1 POP SWAP2 SWAP1 POP JUMP JUMPDEST PUSH1 0x0 DUP2 SWAP1 POP SWAP2 SWAP1 POP JUMP JUMPDEST PUSH1 0x0 PUSH20 0xFFFFFFFFFFFFFFFFFFFFFFFFFFFFFFFFFFFFFFFF DUP3 AND SWAP1 POP SWAP2 SWAP1 POP JUMP JUMPDEST PUSH1 0x0 DUP2 SWAP1 POP SWAP2 SWAP1 POP JUMP JUMPDEST PUSH1 0x0 PUSH10 0xFFFFFFFFFFFFFFFFFFFF DUP3 AND SWAP1 POP SWAP2 SWAP1 POP JUMP JUMPDEST PUSH1 0x0 PUSH2 0x173F DUP3 PUSH2 0x1746 JUMP JUMPDEST SWAP1 POP SWAP2 SWAP1 POP JUMP JUMPDEST PUSH1 0x0 PUSH2 0x1751 DUP3 PUSH2 0x1758 JUMP JUMPDEST SWAP1 POP SWAP2 SWAP1 POP JUMP JUMPDEST PUSH1 0x0 PUSH2 0x1763 DUP3 PUSH2 0x16F4 JUMP JUMPDEST SWAP1 POP SWAP2 SWAP1 POP JUMP JUMPDEST PUSH1 0x0 PUSH2 0x1775 DUP3 PUSH2 0x1714 JUMP JUMPDEST SWAP2 POP PUSH32 0xFFFFFFFFFFFFFFFFFFFFFFFFFFFFFFFFFFFFFFFFFFFFFFFFFFFFFFFFFFFFFFFF DUP3 EQ ISZERO PUSH2 0x17A8 JUMPI PUSH2 0x17A7 PUSH2 0x17B3 JUMP JUMPDEST JUMPDEST PUSH1 0x1 DUP3 ADD SWAP1 POP SWAP2 SWAP1 POP JUMP JUMPDEST PUSH32 0x4E487B7100000000000000000000000000000000000000000000000000000000 PUSH1 0x0 MSTORE PUSH1 0x11 PUSH1 0x4 MSTORE PUSH1 0x24 PUSH1 0x0 REVERT JUMPDEST PUSH32 0x4E487B7100000000000000000000000000000000000000000000000000000000 PUSH1 0x0 MSTORE PUSH1 0x12 PUSH1 0x4 MSTORE PUSH1 0x24 PUSH1 0x0 REVERT JUMPDEST PUSH32 0x4E487B7100000000000000000000000000000000000000000000000000000000 PUSH1 0x0 MSTORE PUSH1 0x32 PUSH1 0x4 MSTORE PUSH1 0x24 PUSH1 0x0 REVERT JUMPDEST PUSH32 0x4E487B7100000000000000000000000000000000000000000000000000000000 PUSH1 0x0 MSTORE PUSH1 0x41 PUSH1 0x4 MSTORE PUSH1 0x24 PUSH1 0x0 REVERT JUMPDEST PUSH1 0x0 DUP1 REVERT JUMPDEST PUSH32 0x596F75206E65656420746F207370656E64206D6F726520455448210000000000 PUSH1 0x0 DUP3 ADD MSTORE POP JUMP JUMPDEST POP JUMP JUMPDEST PUSH2 0x18A9 DUP2 PUSH2 0x16D8 JUMP JUMPDEST DUP2 EQ PUSH2 0x18B4 JUMPI PUSH1 0x0 DUP1 REVERT JUMPDEST POP JUMP JUMPDEST PUSH2 0x18C0 DUP2 PUSH2 0x16EA JUMP JUMPDEST DUP2 EQ PUSH2 0x18CB JUMPI PUSH1 0x0 DUP1 REVERT JUMPDEST POP JUMP JUMPDEST PUSH2 0x18D7 DUP2 PUSH2 0x1714 JUMP JUMPDEST DUP2 EQ PUSH2 0x18E2 JUMPI PUSH1 0x0 DUP1 REVERT JUMPDEST POP JUMP JUMPDEST PUSH2 0x18EE DUP2 PUSH2 0x171E JUMP JUMPDEST DUP2 EQ PUSH2 0x18F9 JUMPI PUSH1 0x0 DUP1 REVERT JUMPDEST POP JUMP INVALID LOG2 PUSH5 0x6970667358 0x22 SLT KECCAK256 JUMP LOG3 DUP12 0x4C 0xAD 0xE8 TIMESTAMP DELEGATECALL CALLDATACOPY SIGNEXTEND OR NUMBER 0xAD MSTORE PUSH13 0x1F96CD36DD63C20C2593A94547 0xDF CALLDATACOPY 0xAC JUMPI PUSH5 0x736F6C6343 STOP ADDMOD SMOD STOP CALLER "},"gasEstimates":{"creation":{"codeDepositCost":"1290000","executionCost":"infinite","totalCost":"infinite"},"external":{"MINIMUM_USD()":"418","cheaperWithdraw()":"infinite","fund()":"infinite","getAddressToAmountFunded(address)":"infinite","getFunder(uint256)":"infinite","getOwner()":"infinite","getPriceFeed()":"infinite","maximumFund()":"2496","maximumFunder()":"2559","withdraw()":"infinite"},"internal":{"c_falsefea98a71(bytes8)":"infinite","c_fea98a71(bytes8)":"11","c_truefea98a71(bytes8)":"infinite"}},"methodIdentifiers":{"MINIMUM_USD()":"6b69a592","cheaperWithdraw()":"be2693f0","fund()":"b60d4288","getAddressToAmountFunded(address)":"0343fb25","getFunder(uint256)":"d7b4750c","getOwner()":"893d20e8","getPriceFeed()":"9e87a5cd","maximumFund()":"5dc65880","maximumFunder()":"4dd7f383","withdraw()":"3ccfd60b"}},"storageLayout":{"storage":[{"astId":151,"contract":"contracts/FundMe.sol:FundMe","label":"s_funders","offset":0,"slot":"0","type":"t_array(t_address)dyn_storage"},{"astId":155,"contract":"contracts/FundMe.sol:FundMe","label":"s_addressToAmountFunded","offset":0,"slot":"1","type":"t_mapping(t_address,t_uint256)"},{"astId":158,"contract":"contracts/FundMe.sol:FundMe","label":"s_priceFeed","offset":0,"slot":"2","type":"t_contract(AggregatorV3Interface)45"},{"astId":160,"contract":"contracts/FundMe.sol:FundMe","label":"maximumFund","offset":0,"slot":"3","type":"t_uint256"},{"astId":162,"contract":"contracts/FundMe.sol:FundMe","label":"maximumFunder","offset":0,"slot":"4","type":"t_address"}],"types":{"t_address":{"encoding":"inplace","label":"address","numberOfBytes":"20"},"t_array(t_address)dyn_storage":{"base":"t_address","encoding":"dynamic_array","label":"address[]","numberOfBytes":"32"},"t_contract(AggregatorV3Interface)45":{"encoding":"inplace","label":"contract AggregatorV3Interface","numberOfBytes":"20"},"t_mapping(t_address,t_uint256)":{"encoding":"mapping","key":"t_address","label":"mapping(address => uint256)","numberOfBytes":"32","value":"t_uint256"},"t_uint256":{"encoding":"inplace","label":"uint256","numberOfBytes":"32"}}},"userdoc":{"kind":"user","methods":{"fund()":{"notice":"Funds our contract based on the ETH/USD price"},"getAddressToAmountFunded(address)":{"notice":"Gets the amount that an address has funded"}},"notice":"This contract is for creating a sample funding contract","version":1}}}}