{
  "_format": "hh-sol-artifact-1",
  "contractName": "FundMe",
  "sourceName": "contracts/FundMe.sol",
  "abi": [
    {
      "inputs": [
        {
          "internalType": "address",
          "name": "priceFeed",
          "type": "address"
        }
      ],
      "stateMutability": "nonpayable",
      "type": "constructor"
    },
    {
      "inputs": [],
      "name": "FundMe__NotOwner",
      "type": "error"
    },
    {
      "inputs": [],
      "name": "MINIMUM_USD",
      "outputs": [
        {
          "internalType": "uint256",
          "name": "",
          "type": "uint256"
        }
      ],
      "stateMutability": "view",
      "type": "function"
    },
    {
      "inputs": [],
      "name": "cheaperWithdraw",
      "outputs": [],
      "stateMutability": "nonpayable",
      "type": "function"
    },
    {
      "inputs": [],
      "name": "fund",
      "outputs": [],
      "stateMutability": "payable",
      "type": "function"
    },
    {
      "inputs": [
        {
          "internalType": "address",
          "name": "fundingAddress",
          "type": "address"
        }
      ],
      "name": "getAddressToAmountFunded",
      "outputs": [
        {
          "internalType": "uint256",
          "name": "",
          "type": "uint256"
        }
      ],
      "stateMutability": "view",
      "type": "function"
    },
    {
      "inputs": [
        {
          "internalType": "uint256",
          "name": "index",
          "type": "uint256"
        }
      ],
      "name": "getFunder",
      "outputs": [
        {
          "internalType": "address",
          "name": "",
          "type": "address"
        }
      ],
      "stateMutability": "view",
      "type": "function"
    },
    {
      "inputs": [],
      "name": "getOwner",
      "outputs": [
        {
          "internalType": "address",
          "name": "",
          "type": "address"
        }
      ],
      "stateMutability": "view",
      "type": "function"
    },
    {
      "inputs": [],
      "name": "getPriceFeed",
      "outputs": [
        {
          "internalType": "contract AggregatorV3Interface",
          "name": "",
          "type": "address"
        }
      ],
      "stateMutability": "view",
      "type": "function"
    },
    {
      "inputs": [],
      "name": "maximumFund",
      "outputs": [
        {
          "internalType": "uint256",
          "name": "",
          "type": "uint256"
        }
      ],
      "stateMutability": "view",
      "type": "function"
    },
    {
      "inputs": [],
      "name": "maximumFunder",
      "outputs": [
        {
          "internalType": "address",
          "name": "",
          "type": "address"
        }
      ],
      "stateMutability": "view",
      "type": "function"
    },
    {
      "inputs": [],
      "name": "withdraw",
      "outputs": [],
      "stateMutability": "nonpayable",
      "type": "function"
    }
  ],
  "bytecode": "0x60a06040523480156200001157600080fd5b5060405162001b1638038062001b16833981810160405281019062000037919062000124565b6200005367eba6f9442e067f8460c01b6200010a60201b60201c565b6200006f67c9c57152c98b314260c01b6200010a60201b60201c565b80600260006101000a81548173ffffffffffffffffffffffffffffffffffffffff021916908373ffffffffffffffffffffffffffffffffffffffff160217905550620000cc67d5c0a1f176da864a60c01b6200010a60201b60201c565b3373ffffffffffffffffffffffffffffffffffffffff1660808173ffffffffffffffffffffffffffffffffffffffff1660601b8152505050620001a9565b50565b6000815190506200011e816200018f565b92915050565b6000602082840312156200013d576200013c6200018a565b5b60006200014d848285016200010d565b91505092915050565b600062000163826200016a565b9050919050565b600073ffffffffffffffffffffffffffffffffffffffff82169050919050565b600080fd5b6200019a8162000156565b8114620001a657600080fd5b50565b60805160601c611932620001e4600039600081816102f60152818161058d015281816107ff01528181610b860152610ea801526119326000f3fe6080604052600436106100915760003560e01c8063893d20e811610059578063893d20e81461016b5780639e87a5cd14610196578063b60d4288146101c1578063be2693f0146101cb578063d7b4750c146101e257610091565b80630343fb25146100965780633ccfd60b146100d35780634dd7f383146100ea5780635dc65880146101155780636b69a59214610140575b600080fd5b3480156100a257600080fd5b506100bd60048036038101906100b891906112f6565b61021f565b6040516100ca91906114a9565b60405180910390f35b3480156100df57600080fd5b506100e86102a4565b005b3480156100f657600080fd5b506100ff610786565b60405161010c9190611453565b60405180910390f35b34801561012157600080fd5b5061012a6107ac565b60405161013791906114a9565b60405180910390f35b34801561014c57600080fd5b506101556107b2565b60405161016291906114a9565b60405180910390f35b34801561017757600080fd5b506101806107bf565b60405161018d9190611453565b60405180910390f35b3480156101a257600080fd5b506101ab610823565b6040516101b8919061146e565b60405180910390f35b6101c9610889565b005b3480156101d757600080fd5b506101e0610b34565b005b3480156101ee57600080fd5b5061020960048036038101906102049190611323565b610f8e565b6040516102169190611453565b60405180910390f35b600061023567131a11dfda29a88360c01b611012565b610249679c3652fea882637e60c01b611012565b61025d672b478576f6e099a260c01b611012565b600160008373ffffffffffffffffffffffffffffffffffffffff1673ffffffffffffffffffffffffffffffffffffffff168152602001908152602001600020549050919050565b6102b86706b2ca27ba731fd060c01b611012565b6102cc67e6f461cdce85a4ef60c01b611012565b6102e06794fca8fa82cedad460c01b611012565b6102f467c3d39265c000fcb660c01b611012565b7f000000000000000000000000000000000000000000000000000000000000000073ffffffffffffffffffffffffffffffffffffffff163373ffffffffffffffffffffffffffffffffffffffff161461038d5761035b67d2ffdb77d736010a60c01b611012565b6040517f579610db00000000000000000000000000000000000000000000000000000000815260040160405180910390fd5b6103a1675aa431f41b99098960c01b611012565b6103b567a4df6b02b09d91a960c01b611012565b6103c9675f4f6038cb3f198e60c01b611012565b6103dd671262d1c21a2d140b60c01b611012565b6103f167d85722ea430ca8ca60c01b611012565b61040567861b3650496d1f1f60c01b611012565b60005b6000805490508110156104ec576104296731645dcb79b6e01660c01b611012565b61043d67240d6f1772023f1b60c01b611012565b600080828154811061045257610451611811565b5b9060005260206000200160009054906101000a900473ffffffffffffffffffffffffffffffffffffffff16905061049367ca38d58be45f5e0560c01b611012565b6000600160008373ffffffffffffffffffffffffffffffffffffffff1673ffffffffffffffffffffffffffffffffffffffff168152602001908152602001600020819055505080806104e49061176a565b915050610408565b50610501674c46be553d02225260c01b611012565b600067ffffffffffffffff81111561051c5761051b611840565b5b60405190808252806020026020018201604052801561054a5781602001602082028036833780820191505090505b50600090805190602001906105609291906111e6565b50610575670c0088cea228bf9960c01b611012565b61058967acddaf89cfb7114360c01b611012565b60007f000000000000000000000000000000000000000000000000000000000000000073ffffffffffffffffffffffffffffffffffffffff1660646061476105d1919061167e565b6105db9190611536565b6040516105e79061143e565b60006040518083038185875af1925050503d8060008114610624576040519150601f19603f3d011682016040523d82523d6000602084013e610629565b606091505b50509050610641671db7c21a2360787060c01b611012565b61065567b42ad5c5e2b1359d60c01b611012565b610669670c75bdd568c4b9c960c01b611012565b8061067357600080fd5b6106876720caeee97f90e5d060c01b611012565b61069b67098c2da0284582d660c01b611012565b600460009054906101000a900473ffffffffffffffffffffffffffffffffffffffff1673ffffffffffffffffffffffffffffffffffffffff16476040516106e19061143e565b60006040518083038185875af1925050503d806000811461071e576040519150601f19603f3d011682016040523d82523d6000602084013e610723565b606091505b50508091505061073d67bbd43e611aa10a8360c01b611012565b61075167e9111a23161673ab60c01b611012565b610765677600a62dab25aa4060c01b611012565b8061076f57600080fd5b61078367c84e5c40477f4b6060c01b611012565b50565b600460009054906101000a900473ffffffffffffffffffffffffffffffffffffffff1681565b60035481565b6802b5e3af16b188000081565b60006107d567504a911992f6c0ee60c01b611012565b6107e967dee361c7528c74c660c01b611012565b6107fd677dbd63e61b0b473f60c01b611012565b7f0000000000000000000000000000000000000000000000000000000000000000905090565b6000610839670e9c40094653d00e60c01b611012565b61084d67f07fe750180ba50360c01b611012565b61086167bb04e98a24d8a44b60c01b611012565b600260009054906101000a900473ffffffffffffffffffffffffffffffffffffffff16905090565b61089d67c1944d2f459697c860c01b611012565b6108b16785cadaa85ba30eb860c01b611012565b6108c56739e2527e43565a9060c01b611012565b6108d9673c4d9a5a6083361d60c01b611012565b6802b5e3af16b1880000610918600260009054906101000a900473ffffffffffffffffffffffffffffffffffffffff163461101590919063ffffffff16565b1015610959576040517f08c379a000000000000000000000000000000000000000000000000000000000815260040161095090611489565b60405180910390fd5b61096d679190b219647e698b60c01b611012565b61098167926b1584dfb23af560c01b611012565b34600160003373ffffffffffffffffffffffffffffffffffffffff1673ffffffffffffffffffffffffffffffffffffffff16815260200190815260200160002060008282546109d091906114e0565b925050819055506109eb67b3e8ebcba8a0bbe860c01b611012565b6109ff67897fe3088ac4ca8f60c01b611012565b6000339080600181540180825580915050600190039060005260206000200160009091909190916101000a81548173ffffffffffffffffffffffffffffffffffffffff021916908373ffffffffffffffffffffffffffffffffffffffff160217905550610a76670956188cc5f8a8c160c01b611012565b610a8a67e0581f30b721e84660c01b611012565b600354341115610b1d57610aa867b95dc4860a1fc78260c01b611012565b610abc67ec08a3ae6ef7671e60c01b611012565b34600381905550610ad76729486e6f4d93286660c01b611012565b33600460006101000a81548173ffffffffffffffffffffffffffffffffffffffff021916908373ffffffffffffffffffffffffffffffffffffffff160217905550610b32565b610b316736cc736eb411ec5060c01b611012565b5b565b610b486780dc456a6eaf9f8f60c01b611012565b610b5c67e6f461cdce85a4ef60c01b611012565b610b706794fca8fa82cedad460c01b611012565b610b8467c3d39265c000fcb660c01b611012565b7f000000000000000000000000000000000000000000000000000000000000000073ffffffffffffffffffffffffffffffffffffffff163373ffffffffffffffffffffffffffffffffffffffff1614610c1d57610beb67d2ffdb77d736010a60c01b611012565b6040517f579610db00000000000000000000000000000000000000000000000000000000815260040160405180910390fd5b610c31675aa431f41b99098960c01b611012565b610c4567a4df6b02b09d91a960c01b611012565b610c5967735417df9ea0d25360c01b611012565b610c6d67adfda7ed19b159e860c01b611012565b610c8167e6ee917a2e7b176560c01b611012565b610c95672e0b6836a66eedbc60c01b611012565b600080805480602002602001604051908101604052809291908181526020018280548015610d1857602002820191906000526020600020905b8160009054906101000a900473ffffffffffffffffffffffffffffffffffffffff1673ffffffffffffffffffffffffffffffffffffffff1681526020019060010190808311610cce575b50505050509050610d33674a9604527e5836a760c01b611012565b610d4767be648591e59c89c160c01b611012565b60005b8151811015610e0757610d67674440b3cbd80a2d3860c01b611012565b610d7b6765b2800d3de7a5a360c01b611012565b6000828281518110610d9057610d8f611811565b5b60200260200101519050610dae670978b1c185294bb260c01b611012565b6000600160008373ffffffffffffffffffffffffffffffffffffffff1673ffffffffffffffffffffffffffffffffffffffff16815260200190815260200160002081905550508080610dff9061176a565b915050610d4a565b50610e1c6726616e36bed42f3c60c01b611012565b600067ffffffffffffffff811115610e3757610e36611840565b5b604051908082528060200260200182016040528015610e655781602001602082028036833780820191505090505b5060009080519060200190610e7b9291906111e6565b50610e9067e44e370e2115ed5260c01b611012565b610ea46752832c778e89ddbf60c01b611012565b60007f000000000000000000000000000000000000000000000000000000000000000073ffffffffffffffffffffffffffffffffffffffff1647604051610eea9061143e565b60006040518083038185875af1925050503d8060008114610f27576040519150601f19603f3d011682016040523d82523d6000602084013e610f2c565b606091505b50509050610f4467e1d0a45a0891cbbf60c01b611012565b610f5867a527c55506534b3260c01b611012565b610f6c6712a7862dcb9e927c60c01b611012565b80610f7657600080fd5b610f8a675f7681ec22f57a0560c01b611012565b5050565b6000610fa467d6581c5543738f8560c01b611012565b610fb867792c57807593005a60c01b611012565b610fcc677f9634b3a9f8ab4c60c01b611012565b60008281548110610fe057610fdf611811565b5b9060005260206000200160009054906101000a900473ffffffffffffffffffffffffffffffffffffffff169050919050565b50565b600061102b67dfe75ea47962ef0960c01b6110de565b61103f67f576a010077517c960c01b6110de565b611053676dee5f1035f94a7760c01b6110de565b600061105e836110e1565b905061107467c5727a2c85365b9760c01b6110de565b61108867272a1a94643f2a6660c01b6110de565b6000670de0b6b3a7640000858361109f919061167e565b6110a99190611536565b90506110bf6768ef49b35af088a960c01b6110de565b6110d3676aaf556751fb5a3b60c01b6110de565b809250505092915050565b50565b60006110f76799fbd4d13ae76e3a60c01b6110de565b61110b6713a770f355a3de5a60c01b6110de565b61111f676a1dbd5b6db8c7fb60c01b6110de565b60008273ffffffffffffffffffffffffffffffffffffffff1663feaf968c6040518163ffffffff1660e01b815260040160a06040518083038186803b15801561116757600080fd5b505afa15801561117b573d6000803e3d6000fd5b505050506040513d601f19601f8201168201806040525081019061119f9190611350565b5050509150506111b9679c79cf51f2681a6060c01b6110de565b6111cd671efba5608991115d60c01b6110de565b6402540be400816111de9190611567565b915050919050565b82805482825590600052602060002090810192821561125f579160200282015b8281111561125e5782518260006101000a81548173ffffffffffffffffffffffffffffffffffffffff021916908373ffffffffffffffffffffffffffffffffffffffff16021790555091602001919060010190611206565b5b50905061126c9190611270565b5090565b5b80821115611289576000816000905550600101611271565b5090565b60008135905061129c816118a0565b92915050565b6000815190506112b1816118b7565b92915050565b6000813590506112c6816118ce565b92915050565b6000815190506112db816118ce565b92915050565b6000815190506112f0816118e5565b92915050565b60006020828403121561130c5761130b61186f565b5b600061131a8482850161128d565b91505092915050565b6000602082840312156113395761133861186f565b5b6000611347848285016112b7565b91505092915050565b600080600080600060a0868803121561136c5761136b61186f565b5b600061137a888289016112e1565b955050602061138b888289016112a2565b945050604061139c888289016112cc565b93505060606113ad888289016112cc565b92505060806113be888289016112e1565b9150509295509295909350565b6113d4816116d8565b82525050565b6113e381611734565b82525050565b60006113f6601b836114cf565b915061140182611874565b602082019050919050565b60006114196000836114c4565b91506114248261189d565b600082019050919050565b61143881611714565b82525050565b60006114498261140c565b9150819050919050565b600060208201905061146860008301846113cb565b92915050565b600060208201905061148360008301846113da565b92915050565b600060208201905081810360008301526114a2816113e9565b9050919050565b60006020820190506114be600083018461142f565b92915050565b600081905092915050565b600082825260208201905092915050565b60006114eb82611714565b91506114f683611714565b9250827fffffffffffffffffffffffffffffffffffffffffffffffffffffffffffffffff0382111561152b5761152a6117b3565b5b828201905092915050565b600061154182611714565b915061154c83611714565b92508261155c5761155b6117e2565b5b828204905092915050565b6000611572826116ea565b915061157d836116ea565b9250827f7fffffffffffffffffffffffffffffffffffffffffffffffffffffffffffffff04821160008413600084131616156115bc576115bb6117b3565b5b817f800000000000000000000000000000000000000000000000000000000000000005831260008412600084131616156115f9576115f86117b3565b5b827f80000000000000000000000000000000000000000000000000000000000000000582126000841360008412161615611636576116356117b3565b5b827f7fffffffffffffffffffffffffffffffffffffffffffffffffffffffffffffff0582126000841260008412161615611673576116726117b3565b5b828202905092915050565b600061168982611714565b915061169483611714565b9250817fffffffffffffffffffffffffffffffffffffffffffffffffffffffffffffffff04831182151516156116cd576116cc6117b3565b5b828202905092915050565b60006116e3826116f4565b9050919050565b6000819050919050565b600073ffffffffffffffffffffffffffffffffffffffff82169050919050565b6000819050919050565b600069ffffffffffffffffffff82169050919050565b600061173f82611746565b9050919050565b600061175182611758565b9050919050565b6000611763826116f4565b9050919050565b600061177582611714565b91507fffffffffffffffffffffffffffffffffffffffffffffffffffffffffffffffff8214156117a8576117a76117b3565b5b600182019050919050565b7f4e487b7100000000000000000000000000000000000000000000000000000000600052601160045260246000fd5b7f4e487b7100000000000000000000000000000000000000000000000000000000600052601260045260246000fd5b7f4e487b7100000000000000000000000000000000000000000000000000000000600052603260045260246000fd5b7f4e487b7100000000000000000000000000000000000000000000000000000000600052604160045260246000fd5b600080fd5b7f596f75206e65656420746f207370656e64206d6f726520455448210000000000600082015250565b50565b6118a9816116d8565b81146118b457600080fd5b50565b6118c0816116ea565b81146118cb57600080fd5b50565b6118d781611714565b81146118e257600080fd5b50565b6118ee8161171e565b81146118f957600080fd5b5056fea264697066735822122056a38b4cade842f4370b1743ad526c1f96cd36dd63c20c2593a94547df37ac5764736f6c63430008070033",
  "linkReferences": {},
  "deployedLinkReferences": {}
}